:10000000000005308A00462DFF00030E8301A10089
:100010000A08A0008A010408A2007708A300780853
:10002000A4007908A5007A08A600831383128C30F7
:100030008400001C1D280C182E2822088400230888
:10004000F7002408F8002508F9002608FA0020081F
:100050008A00210E8300FF0E7F0E09008A110A120A
:100060003128B30A0C108A110A121D283730840077
:100070008313000803194D280630F800BF30F7003D
:100080006400F70B4028F80B3E287A30F700F70B96
:1000900047284A286400800B3C28080037080319C9
:1000A0001329C3003B0803191329C302031C5D284D
:1000B0007F30C3070318132963288130C302031C50
:1000C0001329031913294308F700F801F901FA016C
:1000D000C2013808C100C1173908C0003A08BF0082
:1000E0001930C3003E08BF02031886280130C00241
:1000F00003188628C10203188628C202031886281E
:10010000C20AC10AC00A3E08BF07B8283D08C0029B
:100110000318A1280130C1020318A128C202031844
:10012000A128C20AC10A3D08C0073E08BF07031C38
:10013000B828C00A031DB828C10A031DB828C20A7E
:10014000B8283C088038C1020318B7280130C20221
:100150000318B728C20A3C088038C1073D08C00709
:10016000031C9528C10A031D9528C20A95287A14F4
:10017000C30BBB28C6280310BF0DC00DC10DC20D97
:100180000310FA0DF90DF80DC40D7228441CCE2889
:100190000310F80CF90CFA0CC40CD128F70303195E
:1001A0001329C41BFA280310BF0DC00DC10DC20DC9
:1001B0003E08BF020318E6280130C0020318E628F3
:1001C000C1020318E628C202031C09293D08C00227
:1001D0000318F1280130C1020318F128C202031CE0
:1001E00009293C088038C1020318FA280130C202EC
:1001F000031C0929FA0A031D0929F90A031D092903
:10020000F80A031D0929F70A03191329F80CF90C38
:10021000FA0C3808C3003C08C306C31F1129F8179D
:100220001729F8131729F701F801F901FA01080055
:10023000B3011E30B700362086150130B7003620D6
:1002400086118E018F018E01061D242985309000B4
:10025000061928290F08FA000E08F7000F087A027D
:10026000031D2A297708B7007A08B8008E30F700F6
:100270003808F8003708F900FA01F808031D4A2980
:100280007908F800F9010830F702F808031D4A2937
:10029000F70152290310F81B5129F90DF80DF70346
:1002A0004A29F8137A08AE007908AD007808AC0046
:1002B0007708AB0090013308F700F801F901FA0163
:1002C0007808FA007708F900F701F8017A08BA000F
:1002D0007908B9007808B8007708B700B630F70099
:1002E000FA01F901F8013708380439043A04031D0A
:1002F0007B29F70188290310F81B8729B70DB80D52
:10030000B90DBA0DFA0DF90DF80DF70B7B29F8139D
:1003100083102E08BA002D08B9002C08B8002B084D
:10032000B7007A08BE007908BD007808BC007708DD
:10033000BB0080308318BC06C101C2013808C00070
:100340003C08C00637080319892ABF00F7003B089C
:100350000319922ABF0203192E2A031CEC293C0818
:10036000C500C5173D08C4003E08C300C201031004
:10037000C50CC40CC30CC20CBF0BB629C01FC329CB
:100380004114A62A41103F1041163A3084008313CD
:10039000BB2A4112C01BD6293F1CE129C50CC40C45
:1003A000C30CC20CF70A0319A12AE129C51BE429D1
:1003B0000310C20DC30DC40DC50DF7030319A12A07
:1003C000D62941174E2A41133808C000C01FEA2918
:1003D000C5179A2AC5139A2A3B08BF00F7003708A9
:1003E000BF023808C500C5173908C4003A08C30061
:1003F000C2010310C50CC40CC30CC20CBF0BF829FE
:10040000C01F052AC114A62AC1103F10C1163E30D4
:1004100084008313BB2AC112C01B182A3F1C232A45
:10042000C50CC40CC30CC20CF70A0319A12A232A59
:10043000C51B262A0310C20DC30DC40DC50DF7033D
:100440000319A12A182AC1174E2AC1133C08C0005B
:10045000C01F2C2AC5179A2AC5139A2A3C08C50022
:10046000C5173D08C4003E08C300C01F3B2AC51382
:100470004115A62A4111C2013F103A30840083136E
:10048000BB2AC01B642A3808C0003F1C4E2AC50C7A
:10049000C40CC30CC20CF70A0319A12AC21F5F2A9D
:1004A000C30A031D5F2AC40A031D5F2AC50A031D70
:1004B0005F2AC50CC40CC30CF70A0319A12A411BFF
:1004C000E329C11B252A832A8030C506C51F6C2A53
:1004D000A62A3C08C000792A3808C000C508031DB8
:1004E000792AC408031D792AC308031D792AF70154
:1004F0009A2AC51B832A0310C20DC30DC40DC50D56
:10050000F70B792AA12AC01F872AC5179A2AC51373
:100510009A2A3B08F7003C08C5003D08C4003E0885
:10052000C3009A2A3708F7003808C5003908C40004
:100530003A08C3004508F8004408F9004308FA00E7
:10054000D92AF701F801F901FA01D92AC201C30930
:10055000C409C509C209C20A031DB42AC30A031D7E
:10056000B42AC40A0319C50A4118C229C118042AA9
:1005700041193A2A692A0008C307031CC52AC40A7C
:10058000031DC52AC50A03193F1484030008C407C4
:10059000031CCD2AC50A03193F1484030008801FD9
:1005A000803AC50703183F14411AC929C11A0B2AFA
:1005B000412A7A08B2007908B1007808B0007708BB
:1005C000AF003208BA003108B9003008B8002F086F
:1005D000B700BE01BD012030BC008130BB004E2001
:1005E0007A08B2007908B1007808B0007708AF0047
:1005F0003208BA003108B9003008B8002F08B70037
:10060000BE01BD016830BC008430BB004E207A08BA
:10061000B2007908B1007808B0007708AF0032085E
:10062000BA003108B9003008B8002F08B7008E3082
:10063000F7003708F7023808F9003908F800F91709
:10064000F70803192E2B0310F908031D2A2BF808AD
:1006500003192E2BF90CF80CF70B232BB81F352B95
:10066000F809F909F80A0319F90A7908B5007808B0
:10067000B4008A110A126B2D361C452BF0309D05F3
:1006800007110C30970087104B2BF030970587101F
:100690000C309D0007110800361C622B2808F90059
:1006A0002708F800F90CF80CF90CF80CF90C78088C
:1006B0009500F90C790C3039F7001708CF39770419
:1006C0009700752B2808F9002708F800F90CF80C9A
:1006D000F90CF80CF90C78089B00F90C790C3039FE
:1006E000F7001D08CF3977049D0008008316051612
:1006F0008312051A9B2B83168515831285199B2B54
:10070000831605158312051D9B2B831685148312F2
:1007100085189B2B83160514831205189B2BAA01A1
:10072000A9010130A800F430A7000714881436107E
:100730003C234C23432D831605168312051AC02B28
:10074000831685158312851DC02B8316051583120C
:10075000051DC02B8316851483128518C02B8316A4
:10076000051483120518C02BAA01A9010130A800A5
:100770009030A7000714881436103C234C23432DD7
:10078000831605168312051AE52B83168515831229
:100790008519E52B831605158312051DE52B831698
:1007A00085148312851CE52B831605148312051806
:1007B000E52BAA01A9010130A8009030A700071479
:1007C000881436103C234C23432D831605168312C0
:1007D000051A0A2C831685158312851D0A2C83168B
:1007E00005158312051D0A2C831685148312851C9A
:1007F0000A2C83160514831205180A2CAA01A901D4
:100800000130A8009030A7000714881436103C234C
:100810004C23432D831605168312051A2F2C83169D
:1008200085158312851D2F2C831605158312051936
:100830002F2C83168514831285182F2C83160514EC
:10084000831205182F2CAA01A9010130A8009030AD
:10085000A7000710881436103C234C23432D831621
:1008600005168312051A542C8316851583128519D3
:10087000542C8316051583120519542C83168514E0
:100880008312851C542C8316051483120518542CCE
:10089000AA01A9010130A8009030A7000714881010
:1008A00036103C234C23432D831605168312051E58
:1008B000792C831685158312851D792C83160515D1
:1008C00083120519792C8316851483128518792CC7
:1008D0008316051483120518792CAA01A901013089
:1008E000A8009030A7000710881436103C234C2332
:1008F000432D831605168312051A9E2C8316851523
:10090000831285199E2C83160515831205199E2CBA
:10091000831685148312851C9E2C8316051483125E
:10092000051C9E2CAA01A9010130A8009030A70047
:100930000714881036103C234C23432D83160516CC
:100940008312051EC32C8316851583128519C32CAB
:100950008316051583120519C32C8316851483127B
:100960008518C32C8316051483120518C32CAA01FD
:10097000A9010130A8009030A70007108814361094
:100980003C234C23432D831605168312051AE82CAD
:100990008316851583128519E82C83160515831295
:1009A0000519E82C8316851483128518E82C831604
:1009B00005148312051CE82CAA01A9010130A80026
:1009C0009030A7000714881036103C234C23432D89
:1009D000831605168312051A102D831685158312AA
:1009E0008519102D831605158312051D102D8316EC
:1009F00085148312851C102D831605148312051C83
:100A0000102DAA01A9010230A8005830A700071430
:100A1000881036103C234C236430B7003620432D19
:100A2000831605168312051E382D8316851583122D
:100A3000851D382D831605158312051D382D831647
:100A4000851483128518382D831605148312051812
:100A5000382DAA01A9010230A8005830A7000710BC
:100A6000881436103C234C236430B7003620432DC5
:100A7000AA01A9010130A8009030A700071488142A
:100A800036143C234C238A110A12752D03081F3992
:100A9000830083161F149F141F159F1107309C009D
:100AA0008313003088008700FF3085000914891403
:100AB00009150030860083129001C0308B04831624
:100AC0000C140030F800063883129200F9308316B7
:100AD000920083121829B51B772DB508031D742DBC
:100AE00034080A3C0318772D762B06107A2D071050
:080AF000881006146A2D7B2D0D
:02400E003A373F
:00000001FF
;PIC16F877A
;CRC=FA26  CREATED="28-Jun-21 17:34"
